S01200005374726F6265436F64652E7372656328
S113000009C021C020C0D2C01EC01DC01CC01BC05E
S11300101AC019C011241FBECFE9CDBF10E0A0E65D
S1130020B0E0ECEFF3E002C005900D92A236B10708
S1130030D9F720E0A2E6B0E001C01D92AA36B207CB
S1130040E1F79AD1D9C1DCCFCF93DF93C4E6D0E0F6
S113005060E088819981C2D1888199816EEE019690
S1130060BDD188819981609162000296A5D1888171
S11300709981609163000396B1D160916600888193
S113008099810496ABD1888199810196998388835B
S1130090DF91CF910895CF93DF93C0E0D0E0CE01FC
S11300A083D19E012F5F3F4F8E3E99F4C9017CD1CD
S11300B080936200CE01029677D180936300CE01D3
S11300C0039672D180936600D0936500C093640058
S11300D00FC0E9012034310511F71092620010922B
S11300E0630086E9809366001092650010926400B4
S11300F0DF91CF910895809163008F5F80936300B7
S1130100853058F010926300809162008F5F809375
S11301106200853010F010926200089580916300AF
S1130120882321F0815080936300089580916200B8
S11301308150809362000895379885B7877E8061E7
S113014085BF85B7806285BF8895089590936800C0
S1130150809367008091670090916800892BD1F7A4
S11301600895CF93C82F0BC08091660089BD8AE0A3
S113017090E0ECDF909166009F5F90936600809121
S113018066008C13F1CFCF9108950BC08091660067
S113019089BD8AE090E0DADF809166008150809327
S11301A06600809166008111F1CF08951F920F922D
S11301B00FB60F9211242F933F934F935F936F9336
S11301C07F938F939F93AF93BF93EF93FF9325B147
S11301D08091670090916800892B49F080916700B5
S11301E090916800019790936800809367008091D4
S11301F06900833071F1223830F483E08093690020
S11302007894C3DF99DF80916900823011F1809185
S11302106000909161000197909361008093600069
S1130220892BB9F48091690081110AC064DF0CDF65
S113023088EE93E0909361008093600081E007C0B2
S113024080916900813029F469DFFEDE82E08093C9
S11302506900FF91EF91BF91AF919F918F917F9131
S11302606F915F914F913F912F910F900FBE0F901F
S11302701F90189510DF1092690088B3896188BBBC
S11302808DE681BF83E28FBD8BE083BF86E986BFA5
S113029082E089BFB99A81E687B986EA86B984E0A3
S11302A083B984BB78940895CF92DF92FF920F9321
S11302B01F93CF93DF931F92CDB7DD278C016B0182
S11302C0F12C0BC08091660089BDC80149833EDFD3
S11302D019BCC6013BDFF3944981F412F3CF0F90AC
S11302E0DF91CF911F910F91FF90DF90CF900895F0
S11302F08091660089BDFFCF4FEF64E670E084E62D
S113030090E0D2DFF9CF43E068EC70E088EC90E055
S1130310CBDF43E068E572E088E592E0C5DF43E0C7
S113032068EC70E088EC90E0BFDF88EE93E00EDFCD
S1130330EACFC091660029DF8C2F13DFFCCF82E067
S1130340809369001092620088EE93E0FFDEC6E9B4
S1130350C09366000CC078DE8091660089BD88EE8B
S113036093E0F4DE809166008F5080936600809164
S113037066008111F0CFECCF7DDF80916200823086
S113038069F028F4882341F0813059F406C08330A1
S113039031F0843031F404C0ABDFAEDFB4DFC9DF49
S11303A0CEDF80E090E00895E199FECF1FBA8EBBC6
S11303B0E09A99278DB30895262FE199FECF1FBAAD
S11303C08EBBE09A81500DB2021639F01CBA2DBBD7
S11303D00FB6F894E29AE19A0FBE0895262FE19998
S11303E0FECF1CBA1FBA8EBB2DBB0FB6F894E29A8F
S10F03F0E19A0FBE01960895F894FFCF27
S10503FCE80310
S9030000FC
