S01200005374726F6265436F64652E7372656328
S11300000EC026C025C024C023C0D0C021C020C03B
S11300101FC01EC01DC01CC01BC01AC019C01124A3
S11300201FBECFEDCDBF10E0A0E6B0E0E6EFF3E0F9
S113003002C005900D92A236B107D9F720E0A2E6DE
S1130040B0E001C01D92AA36B207E1F7A4D1D1C134
S1130050D7CFCF93DF93C4E6D0E060E08881998165
S1130060BAD1888199816EEE0196B5D18881998142
S1130070609162000296AFD188819981609163009A
S11300800396A9D160916600888199810496A3D1D1
S113009088819981019699838883DF91CF9108950E
S11300A0CF93DF93C0E0D0E0CE018DD19E012F5FCE
S11300B03F4F8E3E11F5C90186D180936200CE0177
S11300C0029681D180936300CE0103967CD1809304
S11300D06600D0936500C09364008091660081112E
S11300E011C010926200109263008DE78093660045
S11300F0109265001092640005C0E90120383105B2
S113010099F6EFCFDF91CF910895809163008F5FCF
S113011080936300853058F01092630080916200F0
S11301208F5F80936200853010F010926200089512
S113013080916300882319F01092630008958091E0
S113014062008150809362000895379885B7877E56
S1130150806185BF85B7806285BF88950895909337
S11301606800809367008091670090916800892BF4
S1130170D1F70895CF93DF93D82FC0E005C0C8BD51
S113018084E190E0ECDFCF5FCD13F9CFDF91CF9125
S11301900895CF93C091660005C0C8BD84E190E086
S11301A0DEDFC150C111F9CFCF9108951F920F9294
S11301B00FB60F9211242F933F934F935F936F9336
S11301C07F938F939F93AF93BF93EF93FF9324B148
S11301D035B18091670090916800892B49F0809136
S11301E0670090916800019790936800809367007E
S11301F080916900833089F1C9010197873B91405F
S113020030F483E0809369007894C3DF9EDF8091AB
S11302106900823011F18091600090916100019732
S11302209093610080936000892BB9F480916900F8
S113023081110AC06ADF0DDF88EE93E090936100BC
S11302408093600081E007C080916900813029F4C7
S11302506FDFFFDE82E080936900FF91EF91BF9131
S1130260AF919F918F917F916F915F914F913F914A
S11302702F910F900FBE0F901F90189511DF1092C1
S1130280690088B3896188BB83E28ABD8BE083BF40
S11302908DE789BD82E089BFB99A81E887B986EA8A
S11302A086B984E083B984BB86B1866086B9369901
S11302B0FECF86B1866086B93699FECF78940895CC
S11302C0CF92DF92FF920F931F93CF93DF931F92EE
S11302D0CDB7DD278C016B01F12C0BC0809166003A
S11302E088BDC80149833BDF18BCC60138DFF394DD
S11302F04981F412F3CF0F90DF91CF911F910F91A9
S1130300FF90DF90CF9008958091660088BDFFCF65
S11303104FEF64E670E084E690E0D2DFF9CF43E08B
S113032068EC70E088EC90E0CBDF88EE93E017DFB8
S113033043E068E572E088E592E0C2DF88EE93E08E
S11303400EDF43E068EC70E088EC90E0B9DF80ED0C
S113035097E005DFE4CFC09166001BDF8C2F0ADF36
S1130360FCCF82E08093690010926200CDE7C093D5
S113037066000CC08091660088BD6BDE80ED97E05E
S1130380EEDE80916600895180936600809166005C
S11303908111F0CFECCF72DF80916200823069F07E
S11303A028F4882341F0813059F406C0833031F0B9
S11303B0843031F404C0A8DFABDFB1DFCCDFD1DFA0
S11303C080E090E00895E199FECF1FBA8EBBE09AD9
S11303D099278DB30895262FE199FECF1CBA1FBA31
S11303E08EBB2DBB0FB6F894E29AE19A0FBE01962C
S10903F00895F894FFCF0C
S10503F6E80316
S9030000FC
